{
  "contractName": "Certificates",
  "abi": [
    {
      "constant": true,
      "inputs": [
        {
          "name": "",
          "type": "uint256"
        }
      ],
      "name": "certificates",
      "outputs": [
        {
          "name": "certificateID",
          "type": "uint256"
        },
        {
          "name": "studentID",
          "type": "uint256"
        },
        {
          "name": "studentName",
          "type": "string"
        },
        {
          "name": "dateOfBirth",
          "type": "uint256"
        },
        {
          "name": "institutionName",
          "type": "string"
        },
        {
          "name": "dateOfIssuance",
          "type": "uint256"
        },
        {
          "name": "certificateName",
          "type": "string"
        }
      ],
      "payable": false,
      "stateMutability": "view",
      "type": "function",
      "signature": "0x663b3e22"
    },
    {
      "constant": true,
      "inputs": [],
      "name": "certificateCounter",
      "outputs": [
        {
          "name": "",
          "type": "uint256"
        }
      ],
      "payable": false,
      "stateMutability": "view",
      "type": "function",
      "signature": "0x67764b26"
    },
    {
      "constant": false,
      "inputs": [
        {
          "name": "_studentID",
          "type": "uint256"
        },
        {
          "name": "_studentName",
          "type": "string"
        },
        {
          "name": "_dateOfBirth",
          "type": "uint256"
        },
        {
          "name": "_institutionName",
          "type": "string"
        },
        {
          "name": "_dateOfIssuance",
          "type": "uint256"
        },
        {
          "name": "_certificateName",
          "type": "string"
        }
      ],
      "name": "addCertificate",
      "outputs": [
        {
          "name": "",
          "type": "uint256"
        }
      ],
      "payable": false,
      "stateMutability": "nonpayable",
      "type": "function",
      "signature": "0x4331436b"
    },
    {
      "constant": true,
      "inputs": [
        {
          "name": "_studentID",
          "type": "uint256"
        },
        {
          "name": "_certificateID",
          "type": "uint256"
        }
      ],
      "name": "getCertificate",
      "outputs": [
        {
          "name": "certificateID",
          "type": "uint256"
        },
        {
          "name": "studentID",
          "type": "uint256"
        },
        {
          "name": "studentName",
          "type": "string"
        },
        {
          "name": "dateOfBirth",
          "type": "uint256"
        },
        {
          "name": "institutionName",
          "type": "string"
        },
        {
          "name": "dateOfIssuance",
          "type": "uint256"
        },
        {
          "name": "certificateName",
          "type": "string"
        }
      ],
      "payable": false,
      "stateMutability": "view",
      "type": "function",
      "signature": "0xad9df70d"
    }
  ],
  "bytecode": "0x60806040526001805534801561001457600080fd5b50610a8f806100246000396000f3fe6080604052600436106100615763ffffffff7c01000000000000000000000000000000000000000000000000000000006000350416634331436b8114610066578063663b3e221461025057806367764b26146103da578063ad9df70d146103ef575b600080fd5b34801561007257600080fd5b5061023e600480360360c081101561008957600080fd5b813591908101906040810160208201356401000000008111156100ab57600080fd5b8201836020820111156100bd57600080fd5b803590602001918460018302840111640100000000831117156100df57600080fd5b91908080601f0160208091040260200160405190810160405280939291908181526020018383808284376000920191909152509295843595909490935060408101925060200135905064010000000081111561013a57600080fd5b82018360208201111561014c57600080fd5b8035906020019184600183028401116401000000008311171561016e57600080fd5b91908080601f016020809104026020016040519081016040528093929190818152602001838380828437600092019190915250929584359590949093506040810192506020013590506401000000008111156101c957600080fd5b8201836020820111156101db57600080fd5b803590602001918460018302840111640100000000831117156101fd57600080fd5b91908080601f01602080910402602001604051908101604052809392919081815260200183838082843760009201919091525092955061041f945050505050565b60408051918252519081900360200190f35b34801561025c57600080fd5b5061027a6004803603602081101561027357600080fd5b50356104ec565b60405180888152602001878152602001806020018681526020018060200185815260200180602001848103845289818151815260200191508051906020019080838360005b838110156102d75781810151838201526020016102bf565b50505050905090810190601f1680156103045780820380516001836020036101000a031916815260200191505b50848103835287518152875160209182019189019080838360005b8381101561033757818101518382015260200161031f565b50505050905090810190601f1680156103645780820380516001836020036101000a031916815260200191505b50848103825285518152855160209182019187019080838360005b8381101561039757818101518382015260200161037f565b50505050905090810190601f1680156103c45780820380516001836020036101000a031916815260200191505b509a505050505050505050505060405180910390f35b3480156103e657600080fd5b5061023e6106c2565b3480156103fb57600080fd5b5061027a6004803603604081101561041257600080fd5b50803590602001356106c8565b600180546040805160e08101825282815260208082018b81528284018b8152606084018b9052608084018a905260a0840189905260c08401889052600086815280845294852084518155915196820196909655945180519395929361048a926002850192019061098a565b5060608201516003820155608082015180516104b091600484019160209091019061098a565b5060a0820151600582015560c082015180516104d691600684019160209091019061098a565b5050600180548101905550979650505050505050565b6000602081815291815260409081902080546001808301546002808501805487519481161561010002600019011691909104601f8101889004880284018801909652858352929590949192919083018282801561058a5780601f1061055f5761010080835404028352916020019161058a565b820191906000526020600020905b81548152906001019060200180831161056d57829003601f168201915b50505050600383015460048401805460408051602060026001851615610100026000190190941693909304601f810184900484028201840190925281815295969395939450908301828280156106215780601f106105f657610100808354040283529160200191610621565b820191906000526020600020905b81548152906001019060200180831161060457829003601f168201915b50505050600583015460068401805460408051602060026001851615610100026000190190941693909304601f810184900484028201840190925281815295969395939450908301828280156106b85780601f1061068d576101008083540402835291602001916106b8565b820191906000526020600020905b81548152906001019060200180831161069b57829003601f168201915b5050505050905087565b60015481565b600080606060006060600060606106dd610a08565b60008981526020818152604091829020825160e08101845281548152600180830154828501526002808401805487519381161561010002600019011691909104601f8101869004860283018601875280835292959394938601939192909183018282801561078c5780601f106107615761010080835404028352916020019161078c565b820191906000526020600020905b81548152906001019060200180831161076f57829003601f168201915b5050509183525050600382015460208083019190915260048301805460408051601f6002600019610100600187161502019094169390930492830185900485028101850182528281529401939283018282801561082a5780601f106107ff5761010080835404028352916020019161082a565b820191906000526020600020905b81548152906001019060200180831161080d57829003601f168201915b5050509183525050600582015460208083019190915260068301805460408051601f600260001961010060018716150201909416939093049283018590048502810185018252828152940193928301828280156108c85780601f1061089d576101008083540402835291602001916108c8565b820191906000526020600020905b8154815290600101906020018083116108ab57829003601f168201915b505050919092525050815191925050158015906108e55750805189145b151561095257604080517f08c379a000000000000000000000000000000000000000000000000000000000815260206004820152601560248201527f4365727469666963617465206e6f7420666f756e640000000000000000000000604482015290519081900360640190fd5b8051602082015160408301516060840151608085015160a086015160c090960151949f939e50919c509a509850919650945092505050565b828054600181600116156101000203166002900490600052602060002090601f016020900481019282601f106109cb57805160ff19168380011785556109f8565b828001600101855582156109f8579182015b828111156109f85782518255916020019190600101906109dd565b50610a04929150610a46565b5090565b60e060405190810160405280600081526020016000815260200160608152602001600081526020016060815260200160008152602001606081525090565b610a6091905b80821115610a045760008155600101610a4c565b9056fea165627a7a723058207b19d8627a383e9c3261f80091fa9265306bcaa7e8997fd6a66b4d60296c45460029",
  "source": "pragma solidity ^0.5.0;\r\n\r\ncontract Certificates {\r\n\r\n\r\n    struct Certificate {\r\n        uint256 certificateID;\r\n        uint256 studentID;\r\n        string studentName;\r\n        uint256 dateOfBirth;\r\n        string institutionName;\r\n        uint256 dateOfIssuance;\r\n        string certificateName;\r\n    }\r\n\r\n    mapping(uint256 => Certificate) public certificates;\r\n    uint256 public certificateCounter = 1;\r\n\r\n    function addCertificate(\r\n        uint256 _studentID,\r\n        string memory _studentName,\r\n        uint256  _dateOfBirth,\r\n        string memory _institutionName,\r\n        uint256  _dateOfIssuance,\r\n        string memory _certificateName\r\n    ) public returns (uint256) {\r\n        uint256 certificateID = certificateCounter;\r\n        certificates[certificateID] = Certificate({\r\n            certificateID: certificateID,\r\n            studentID: _studentID,\r\n            studentName: _studentName,\r\n            dateOfBirth: _dateOfBirth,\r\n            institutionName: _institutionName,\r\n            dateOfIssuance: _dateOfIssuance,\r\n            certificateName: _certificateName\r\n        });\r\n        certificateCounter++;\r\n        return certificateID;\r\n    }\r\n\r\n    function getCertificate(\r\n        uint256 _studentID,\r\n        uint256 _certificateID\r\n        )\r\n         public view returns (\r\n        uint256 certificateID,\r\n        uint256 studentID,\r\n        string memory studentName,\r\n        uint256  dateOfBirth,\r\n        string memory institutionName,\r\n        uint256  dateOfIssuance,\r\n        string memory certificateName\r\n    ) {\r\n        Certificate memory certificate = certificates[_certificateID];\r\n        require(certificate.certificateID != 0 && certificate.certificateID == _certificateID, \"Certificate not found\");\r\n        return (\r\n            certificate.certificateID,\r\n            certificate.studentID,\r\n            certificate.studentName,\r\n            certificate.dateOfBirth,\r\n            certificate.institutionName,\r\n            certificate.dateOfIssuance,\r\n            certificate.certificateName\r\n        );\r\n    }\r\n    \r\n\r\n    \r\n}\r\n",
  "sourcePath": "C:/Users/kavur/OneDrive/Desktop/BlockChain_Project/contracts/Certificates.sol",
  "compiler": {
    "name": "solc",
    "version": "0.5.0+commit.1d4f565a.Emscripten.clang"
  },
  "schemaVersion": "3.0.1",
  "updatedAt": "2023-11-14T20:32:30.495Z",
  "devdoc": {
    "methods": {}
  },
  "userdoc": {
    "methods": {}
  }
}